{
  "_format": "hh-sol-artifact-1",
  "contractName": "JPEGminer",
  "sourceName": "contracts/JPEGminer.sol",
  "abi": [
    {
      "inputs": [
        {
          "internalType": "bytes32",
          "name": "root",
          "type": "bytes32"
        },
        {
          "internalType": "string",
          "name": "jpegHeader",
          "type": "string"
        },
        {
          "internalType": "string",
          "name": "jpegFooter",
          "type": "string"
        }
      ],
      "stateMutability": "nonpayable",
      "type": "constructor"
    },
    {
      "anonymous": false,
      "inputs": [
        {
          "indexed": true,
          "internalType": "address",
          "name": "owner",
          "type": "address"
        },
        {
          "indexed": true,
          "internalType": "address",
          "name": "approved",
          "type": "address"
        },
        {
          "indexed": true,
          "internalType": "uint256",
          "name": "tokenId",
          "type": "uint256"
        }
      ],
      "name": "Approval",
      "type": "event"
    },
    {
      "anonymous": false,
      "inputs": [
        {
          "indexed": true,
          "internalType": "address",
          "name": "owner",
          "type": "address"
        },
        {
          "indexed": true,
          "internalType": "address",
          "name": "operator",
          "type": "address"
        },
        {
          "indexed": false,
          "internalType": "bool",
          "name": "approved",
          "type": "bool"
        }
      ],
      "name": "ApprovalForAll",
      "type": "event"
    },
    {
      "anonymous": false,
      "inputs": [
        {
          "indexed": true,
          "internalType": "address",
          "name": "minerAddress",
          "type": "address"
        },
        {
          "indexed": false,
          "internalType": "uint256",
          "name": "kiloBytes",
          "type": "uint256"
        },
        {
          "indexed": false,
          "internalType": "uint256",
          "name": "tokenId",
          "type": "uint256"
        },
        {
          "indexed": true,
          "internalType": "uint8",
          "name": "phaseId",
          "type": "uint8"
        },
        {
          "indexed": true,
          "internalType": "uint8",
          "name": "tokenIdInPhase",
          "type": "uint8"
        },
        {
          "indexed": false,
          "internalType": "uint8",
          "name": "colorId",
          "type": "uint8"
        },
        {
          "indexed": false,
          "internalType": "uint8",
          "name": "quoteId",
          "type": "uint8"
        }
      ],
      "name": "Mined",
      "type": "event"
    },
    {
      "anonymous": false,
      "inputs": [
        {
          "indexed": true,
          "internalType": "address",
          "name": "previousOwner",
          "type": "address"
        },
        {
          "indexed": true,
          "internalType": "address",
          "name": "newOwner",
          "type": "address"
        }
      ],
      "name": "OwnershipTransferred",
      "type": "event"
    },
    {
      "anonymous": false,
      "inputs": [
        {
          "indexed": true,
          "internalType": "address",
          "name": "from",
          "type": "address"
        },
        {
          "indexed": true,
          "internalType": "address",
          "name": "to",
          "type": "address"
        },
        {
          "indexed": true,
          "internalType": "uint256",
          "name": "tokenId",
          "type": "uint256"
        }
      ],
      "name": "Transfer",
      "type": "event"
    },
    {
      "inputs": [
        {
          "internalType": "uint256",
          "name": "",
          "type": "uint256"
        }
      ],
      "name": "CHUNKS",
      "outputs": [
        {
          "internalType": "address",
          "name": "dataPointer",
          "type": "address"
        },
        {
          "internalType": "uint8",
          "name": "phaseId",
          "type": "uint8"
        },
        {
          "internalType": "uint8",
          "name": "tokenIdInPhase",
          "type": "uint8"
        },
        {
          "internalType": "uint16",
          "name": "lastTokenIdInScan",
          "type": "uint16"
        },
        {
          "internalType": "uint8",
          "name": "colorId",
          "type": "uint8"
        },
        {
          "internalType": "uint8",
          "name": "quoteId",
          "type": "uint8"
        },
        {
          "internalType": "uint32",
          "name": "seed",
          "type": "uint32"
        }
      ],
      "stateMutability": "view",
      "type": "function"
    },
    {
      "inputs": [],
      "name": "JPEG_FOOTER",
      "outputs": [
        {
          "internalType": "bytes",
          "name": "",
          "type": "bytes"
        }
      ],
      "stateMutability": "view",
      "type": "function"
    },
    {
      "inputs": [],
      "name": "JPEG_HEADER_POINTER",
      "outputs": [
        {
          "internalType": "address",
          "name": "",
          "type": "address"
        }
      ],
      "stateMutability": "view",
      "type": "function"
    },
    {
      "inputs": [
        {
          "internalType": "address",
          "name": "to",
          "type": "address"
        },
        {
          "internalType": "uint256",
          "name": "tokenId",
          "type": "uint256"
        }
      ],
      "name": "approve",
      "outputs": [],
      "stateMutability": "nonpayable",
      "type": "function"
    },
    {
      "inputs": [
        {
          "internalType": "address",
          "name": "owner",
          "type": "address"
        }
      ],
      "name": "balanceOf",
      "outputs": [
        {
          "internalType": "uint256",
          "name": "",
          "type": "uint256"
        }
      ],
      "stateMutability": "view",
      "type": "function"
    },
    {
      "inputs": [
        {
          "internalType": "uint256",
          "name": "tokenId",
          "type": "uint256"
        }
      ],
      "name": "getApproved",
      "outputs": [
        {
          "internalType": "address",
          "name": "",
          "type": "address"
        }
      ],
      "stateMutability": "view",
      "type": "function"
    },
    {
      "inputs": [
        {
          "internalType": "address",
          "name": "owner",
          "type": "address"
        },
        {
          "internalType": "address",
          "name": "operator",
          "type": "address"
        }
      ],
      "name": "isApprovedForAll",
      "outputs": [
        {
          "internalType": "bool",
          "name": "",
          "type": "bool"
        }
      ],
      "stateMutability": "view",
      "type": "function"
    },
    {
      "inputs": [
        {
          "internalType": "string",
          "name": "dataChunk",
          "type": "string"
        },
        {
          "internalType": "uint8",
          "name": "phaseId",
          "type": "uint8"
        },
        {
          "internalType": "uint8",
          "name": "tokenIdInPhase",
          "type": "uint8"
        },
        {
          "internalType": "uint16",
          "name": "lastTokenIdInScan",
          "type": "uint16"
        },
        {
          "internalType": "bytes32[]",
          "name": "proof",
          "type": "bytes32[]"
        }
      ],
      "name": "mine",
      "outputs": [],
      "stateMutability": "nonpayable",
      "type": "function"
    },
    {
      "inputs": [],
      "name": "name",
      "outputs": [
        {
          "internalType": "string",
          "name": "",
          "type": "string"
        }
      ],
      "stateMutability": "view",
      "type": "function"
    },
    {
      "inputs": [],
      "name": "owner",
      "outputs": [
        {
          "internalType": "address",
          "name": "",
          "type": "address"
        }
      ],
      "stateMutability": "view",
      "type": "function"
    },
    {
      "inputs": [
        {
          "internalType": "uint256",
          "name": "tokenId",
          "type": "uint256"
        }
      ],
      "name": "ownerOf",
      "outputs": [
        {
          "internalType": "address",
          "name": "",
          "type": "address"
        }
      ],
      "stateMutability": "view",
      "type": "function"
    },
    {
      "inputs": [],
      "name": "renounceOwnership",
      "outputs": [],
      "stateMutability": "nonpayable",
      "type": "function"
    },
    {
      "inputs": [
        {
          "internalType": "address",
          "name": "from",
          "type": "address"
        },
        {
          "internalType": "address",
          "name": "to",
          "type": "address"
        },
        {
          "internalType": "uint256",
          "name": "tokenId",
          "type": "uint256"
        }
      ],
      "name": "safeTransferFrom",
      "outputs": [],
      "stateMutability": "nonpayable",
      "type": "function"
    },
    {
      "inputs": [
        {
          "internalType": "address",
          "name": "from",
          "type": "address"
        },
        {
          "internalType": "address",
          "name": "to",
          "type": "address"
        },
        {
          "internalType": "uint256",
          "name": "tokenId",
          "type": "uint256"
        },
        {
          "internalType": "bytes",
          "name": "data",
          "type": "bytes"
        }
      ],
      "name": "safeTransferFrom",
      "outputs": [],
      "stateMutability": "nonpayable",
      "type": "function"
    },
    {
      "inputs": [
        {
          "internalType": "address",
          "name": "operator",
          "type": "address"
        },
        {
          "internalType": "bool",
          "name": "approved",
          "type": "bool"
        }
      ],
      "name": "setApprovalForAll",
      "outputs": [],
      "stateMutability": "nonpayable",
      "type": "function"
    },
    {
      "inputs": [
        {
          "internalType": "bytes4",
          "name": "interfaceId",
          "type": "bytes4"
        }
      ],
      "name": "supportsInterface",
      "outputs": [
        {
          "internalType": "bool",
          "name": "",
          "type": "bool"
        }
      ],
      "stateMutability": "view",
      "type": "function"
    },
    {
      "inputs": [],
      "name": "symbol",
      "outputs": [
        {
          "internalType": "string",
          "name": "",
          "type": "string"
        }
      ],
      "stateMutability": "view",
      "type": "function"
    },
    {
      "inputs": [
        {
          "internalType": "uint256",
          "name": "index",
          "type": "uint256"
        }
      ],
      "name": "tokenByIndex",
      "outputs": [
        {
          "internalType": "uint256",
          "name": "",
          "type": "uint256"
        }
      ],
      "stateMutability": "view",
      "type": "function"
    },
    {
      "inputs": [
        {
          "internalType": "address",
          "name": "owner",
          "type": "address"
        },
        {
          "internalType": "uint256",
          "name": "index",
          "type": "uint256"
        }
      ],
      "name": "tokenOfOwnerByIndex",
      "outputs": [
        {
          "internalType": "uint256",
          "name": "",
          "type": "uint256"
        }
      ],
      "stateMutability": "view",
      "type": "function"
    },
    {
      "inputs": [
        {
          "internalType": "uint256",
          "name": "tokenId",
          "type": "uint256"
        }
      ],
      "name": "tokenURI",
      "outputs": [
        {
          "internalType": "string",
          "name": "",
          "type": "string"
        }
      ],
      "stateMutability": "view",
      "type": "function"
    },
    {
      "inputs": [],
      "name": "totalSupply",
      "outputs": [
        {
          "internalType": "uint256",
          "name": "",
          "type": "uint256"
        }
      ],
      "stateMutability": "view",
      "type": "function"
    },
    {
      "inputs": [
        {
          "internalType": "address",
          "name": "from",
          "type": "address"
        },
        {
          "internalType": "address",
          "name": "to",
          "type": "address"
        },
        {
          "internalType": "uint256",
          "name": "tokenId",
          "type": "uint256"
        }
      ],
      "name": "transferFrom",
      "outputs": [],
      "stateMutability": "nonpayable",
      "type": "function"
    },
    {
      "inputs": [
        {
          "internalType": "address",
          "name": "newOwner",
          "type": "address"
        }
      ],
      "name": "transferOwnership",
      "outputs": [],
      "stateMutability": "nonpayable",
      "type": "function"
    }
  ],
  "bytecode": "0x60c06040526000600d60006101000a81548160ff0219169083151502179055503480156200002c57600080fd5b5060405162005f0e38038062005f0e8339818101604052810190620000529190620004fe565b6040518060400160405280600c81526020017f4275746572696e204361726400000000000000000000000000000000000000008152506040518060400160405280600381526020017f56495400000000000000000000000000000000000000000000000000000000008152508160009081620000cf9190620007e3565b508060019081620000e19190620007e3565b50505062000104620000f86200019160201b60201c565b6200019960201b60201c565b8260808181525050620001438260405160200162000123919062000932565b6040516020818303038152906040526200025f60201b620017871760201c565b73ffffffffffffffffffffffffffffffffffffffff1660a08173ffffffffffffffffffffffffffffffffffffffff168152505080600c9081620001879190620009cc565b5050505062000c44565b600033905090565b6000600a60009054906101000a900473ffffffffffffffffffffffffffffffffffffffff16905081600a60006101000a81548173ffffffffffffffffffffffffffffffffffffffff021916908373ffffffffffffffffffffffffffffffffffffffff1602179055508173ffffffffffffffffffffffffffffffffffffffff168173ffffffffffffffffffffffffffffffffffffffff167f8be0079c531659141344cd1fd0a4f28419497f9722a3daafe3b4186f6b6457e060405160405180910390a35050565b6000808260405160200162000275919062000b25565b60405160208183030381529060405290506000816040516020016200029b919062000b9b565b60405160208183030381529060405290508051602082016000f09250600073ffffffffffffffffffffffffffffffffffffffff168373ffffffffffffffffffffffffffffffffffffffff160362000329576040517f08c379a0000000000000000000000000000000000000000000000000000000008152600401620003209062000c22565b60405180910390fd5b5050919050565b6000604051905090565b600080fd5b600080fd5b6000819050919050565b620003598162000344565b81146200036557600080fd5b50565b60008151905062000379816200034e565b92915050565b600080fd5b600080fd5b6000601f19601f8301169050919050565b7f4e487b7100000000000000000000000000000000000000000000000000000000600052604160045260246000fd5b620003d48262000389565b810181811067ffffffffffffffff82111715620003f657620003f56200039a565b5b80604052505050565b60006200040b62000330565b9050620004198282620003c9565b919050565b600067ffffffffffffffff8211156200043c576200043b6200039a565b5b620004478262000389565b9050602081019050919050565b60005b838110156200047457808201518184015260208101905062000457565b60008484015250505050565b60006200049762000491846200041e565b620003ff565b905082815260208101848484011115620004b657620004b562000384565b5b620004c384828562000454565b509392505050565b600082601f830112620004e357620004e26200037f565b5b8151620004f584826020860162000480565b91505092915050565b6000806000606084860312156200051a57620005196200033a565b5b60006200052a8682870162000368565b935050602084015167ffffffffffffffff8111156200054e576200054d6200033f565b5b6200055c86828701620004cb565b925050604084015167ffffffffffffffff81111562000580576200057f6200033f565b5b6200058e86828701620004cb565b9150509250925092565b600081519050919050565b7f4e487b7100000000000000000000000000000000000000000000000000000000600052602260045260246000fd5b60006002820490506001821680620005eb57607f821691505b602082108103620006015762000600620005a3565b5b50919050565b60008190508160005260206000209050919050565b60006020601f8301049050919050565b600082821b905092915050565b6000600883026200066b7fffffffffffffffffffffffffffffffffffffffffffffffffffffffffffffffff826200062c565b6200067786836200062c565b95508019841693508086168417925050509392505050565b6000819050919050565b6000819050919050565b6000620006c4620006be620006b8846200068f565b62000699565b6200068f565b9050919050565b6000819050919050565b620006e083620006a3565b620006f8620006ef82620006cb565b84845462000639565b825550505050565b600090565b6200070f62000700565b6200071c818484620006d5565b505050565b5b8181101562000744576200073860008262000705565b60018101905062000722565b5050565b601f82111562000793576200075d8162000607565b62000768846200061c565b8101602085101562000778578190505b6200079062000787856200061c565b83018262000721565b50505b505050565b600082821c905092915050565b6000620007b86000198460080262000798565b1980831691505092915050565b6000620007d38383620007a5565b9150826002028217905092915050565b620007ee8262000598565b67ffffffffffffffff8111156200080a57620008096200039a565b5b620008168254620005d2565b6200082382828562000748565b600060209050601f8311600181146200085b576000841562000846578287015190505b620008528582620007c5565b865550620008c2565b601f1984166200086b8662000607565b60005b8281101562000895578489015182556001820191506020850194506020810190506200086e565b86831015620008b55784890151620008b1601f891682620007a5565b8355505b6001600288020188555050505b505050505050565b7f646174613a696d6167652f6a7065673b6261736536342c000000000000000000815250565b600081905092915050565b6000620009088262000598565b620009148185620008f0565b93506200092681856020860162000454565b80840191505092915050565b60006200093f82620008ca565b601782019150620009518284620008fb565b915081905092915050565b600081519050919050565b60008190508160005260206000209050919050565b601f821115620009c757620009918162000967565b6200099c846200061c565b81016020851015620009ac578190505b620009c4620009bb856200061c565b83018262000721565b50505b505050565b620009d7826200095c565b67ffffffffffffffff811115620009f357620009f26200039a565b5b620009ff8254620005d2565b62000a0c8282856200097c565b600060209050601f83116001811462000a44576000841562000a2f578287015190505b62000a3b8582620007c5565b86555062000aab565b601f19841662000a548662000967565b60005b8281101562000a7e5784890151825560018201915060208501945060208101905062000a57565b8683101562000a9e578489015162000a9a601f891682620007a5565b8355505b6001600288020188555050505b505050505050565b60008082015250565b600062000acb600183620008f0565b915062000ad88262000ab3565b600182019050919050565b600081905092915050565b600062000afb826200095c565b62000b07818562000ae3565b935062000b1981856020860162000454565b80840191505092915050565b600062000b328262000abc565b915062000b40828462000aee565b915081905092915050565b7f600b5981380380925939f3000000000000000000000000000000000000000000600082015250565b600062000b83600b83620008f0565b915062000b908262000b4b565b600b82019050919050565b600062000ba88262000b74565b915062000bb6828462000aee565b915081905092915050565b600082825260208201905092915050565b7f4445504c4f594d454e545f4641494c4544000000000000000000000000000000600082015250565b600062000c0a60118362000bc1565b915062000c178262000bd2565b602082019050919050565b6000602082019050818103600083015262000c3d8162000bfb565b9050919050565b60805160a05161529d62000c7160003960008181611240015261176501526000611e6c015261529d6000f3fe608060405234801561001057600080fd5b506004361061014d5760003560e01c8063681e7fe1116100c3578063a22cb4651161007c578063a22cb465146103b8578063b88d4fde146103d4578063c87b56dd146103f0578063e985e9c514610420578063f2fde38b14610450578063f3a84acc1461046c5761014d565b8063681e7fe1146102f057806370a082311461030c578063715018a61461033c578063718dfde3146103465780638da5cb5b1461037c57806395d89b411461039a5761014d565b806318160ddd1161011557806318160ddd1461020a57806323b872dd146102285780632f745c591461024457806342842e0e146102745780634f6ccce7146102905780636352211e146102c05761014d565b806301ffc9a71461015257806306fdde031461018257806307026ec0146101a0578063081812fc146101be578063095ea7b3146101ee575b600080fd5b61016c6004803603810190610167919061315c565b61048a565b60405161017991906131a4565b60405180910390f35b61018a610504565b604051610197919061324f565b60405180910390f35b6101a8610596565b6040516101b591906132c6565b60405180910390f35b6101d860048036038101906101d3919061331e565b610624565b6040516101e5919061338c565b60405180910390f35b610208600480360381019061020391906133d3565b61066a565b005b610212610781565b60405161021f9190613422565b60405180910390f35b610242600480360381019061023d919061343d565b61078e565b005b61025e600480360381019061025991906133d3565b6107ee565b60405161026b9190613422565b60405180910390f35b61028e6004803603810190610289919061343d565b610893565b005b6102aa60048036038101906102a5919061331e565b6108b3565b6040516102b79190613422565b60405180910390f35b6102da60048036038101906102d5919061331e565b610924565b6040516102e7919061338c565b60405180910390f35b61030a600480360381019061030591906135be565b6109aa565b005b6103266004803603810190610321919061367a565b610c39565b6040516103339190613422565b60405180910390f35b610344610cf0565b005b610360600480360381019061035b919061331e565b610d04565b60405161037397969594939291906136e4565b60405180910390f35b610384610dc4565b604051610391919061338c565b60405180910390f35b6103a2610dee565b6040516103af919061324f565b60405180910390f35b6103d260048036038101906103cd919061377f565b610e80565b005b6103ee60048036038101906103e991906138ef565b610e96565b005b61040a6004803603810190610405919061331e565b610ef8565b604051610417919061324f565b60405180910390f35b61043a60048036038101906104359190613972565b61164c565b60405161044791906131a4565b60405180910390f35b61046a6004803603810190610465919061367a565b6116e0565b005b610474611763565b604051610481919061338c565b60405180910390f35b60007f780e9d63000000000000000000000000000000000000000000000000000000007bffffffffffffffffffffffffffffffffffffffffffffffffffffffff1916827bffffffffffffffffffffffffffffffffffffffffffffffffffffffff191614806104fd57506104fc82611851565b5b9050919050565b606060008054610513906139e1565b80601f016020809104026020016040519081016040528092919081815260200182805461053f906139e1565b801561058c5780601f106105615761010080835404028352916020019161058c565b820191906000526020600020905b81548152906001019060200180831161056f57829003601f168201915b5050505050905090565b600c80546105a3906139e1565b80601f01602080910402602001604051908101604052809291908181526020018280546105cf906139e1565b801561061c5780601f106105f15761010080835404028352916020019161061c565b820191906000526020600020905b8154815290600101906020018083116105ff57829003601f168201915b505050505081565b600061062f82611933565b6004600083815260200190815260200160002060009054906101000a900473ffffffffffffffffffffffffffffffffffffffff169050919050565b600061067582610924565b90508073ffffffffffffffffffffffffffffffffffffffff168373ffffffffffffffffffffffffffffffffffffffff16036106e5576040517f08c379a00000000000000000000000000000000000000000000000000000000081526004016106dc90613a84565b60405180910390fd5b8073ffffffffffffffffffffffffffffffffffffffff1661070461197e565b73ffffffffffffffffffffffffffffffffffffffff16148061073357506107328161072d61197e565b61164c565b5b610772576040517f08c379a000000000000000000000000000000000000000000000000000000000815260040161076990613b16565b60405180910390fd5b61077c8383611986565b505050565b6000600880549050905090565b61079f61079961197e565b82611a3f565b6107de576040517f08c379a00000000000000000000000000000000000000000000000000000000081526004016107d590613ba8565b60405180910390fd5b6107e9838383611ad4565b505050565b60006107f983610c39565b821061083a576040517f08c379a000000000000000000000000000000000000000000000000000000000815260040161083190613c3a565b60405180910390fd5b600660008473ffffffffffffffffffffffffffffffffffffffff1673ffffffffffffffffffffffffffffffffffffffff168152602001908152602001600020600083815260200190815260200160002054905092915050565b6108ae83838360405180602001604052806000815250610e96565b505050565b60006108bd610781565b82106108fe576040517f08c379a00000000000000000000000000000000000000000000000000000000081526004016108f590613ccc565b60405180910390fd5b6008828154811061091257610911613cec565b5b90600052602060002001549050919050565b60008061093083611dcd565b9050600073ffffffffffffffffffffffffffffffffffffffff168173ffffffffffffffffffffffffffffffffffffffff16036109a1576040517f08c379a000000000000000000000000000000000000000000000000000000000815260040161099890613d67565b60405180910390fd5b80915050919050565b60006109b4610781565b90506109c68888838989898989611e0a565b60008060006109d484611edb565b925092509250600b6040518060e00160405280610a348e8e8080601f016020809104026020016040519081016040528093929190818152602001838380828437600081840152601f19601f82011690508083019250505050505050611787565b73ffffffffffffffffffffffffffffffffffffffff1681526020018b60ff1681526020018a60ff1681526020018961ffff1681526020018560ff1681526020018460ff1681526020018363ffffffff168152509080600181540180825580915050600190039060005260206000200160009091909190915060008201518160000160006101000a81548173ffffffffffffffffffffffffffffffffffffffff021916908373ffffffffffffffffffffffffffffffffffffffff16021790555060208201518160000160146101000a81548160ff021916908360ff16021790555060408201518160000160156101000a81548160ff021916908360ff16021790555060608201518160000160166101000a81548161ffff021916908361ffff16021790555060808201518160000160186101000a81548160ff021916908360ff16021790555060a08201518160000160196101000a81548160ff021916908360ff16021790555060c082015181600001601a6101000a81548163ffffffff021916908363ffffffff1602179055505050610bcd3385611f8c565b8760ff168960ff163373ffffffffffffffffffffffffffffffffffffffff167f4764d4dab2f0f6ead0204d85d6c7a02e03c3fcfda2dc4be7b227c9e98b2a9faf8e8e9050888888604051610c249493929190613d87565b60405180910390a45050505050505050505050565b60008073ffffffffffffffffffffffffffffffffffffffff168273ffffffffffffffffffffffffffffffffffffffff1603610ca9576040517f08c379a0000000000000000000000000000000000000000000000000000000008152600401610ca090613e3e565b60405180910390fd5b600360008373ffffffffffffffffffffffffffffffffffffffff1673ffffffffffffffffffffffffffffffffffffffff168152602001908152602001600020549050919050565b610cf86121a9565b610d026000612227565b565b600b8181548110610d1457600080fd5b906000526020600020016000915090508060000160009054906101000a900473ffffffffffffffffffffffffffffffffffffffff16908060000160149054906101000a900460ff16908060000160159054906101000a900460ff16908060000160169054906101000a900461ffff16908060000160189054906101000a900460ff16908060000160199054906101000a900460ff169080600001601a9054906101000a900463ffffffff16905087565b6000600a60009054906101000a900473ffffffffffffffffffffffffffffffffffffffff16905090565b606060018054610dfd906139e1565b80601f0160208091040260200160405190810160405280929190818152602001828054610e29906139e1565b8015610e765780601f10610e4b57610100808354040283529160200191610e76565b820191906000526020600020905b815481529060010190602001808311610e5957829003601f168201915b5050505050905090565b610e92610e8b61197e565b83836122ed565b5050565b610ea7610ea161197e565b83611a3f565b610ee6576040517f08c379a0000000000000000000000000000000000000000000000000000000008152600401610edd90613ba8565b60405180910390fd5b610ef284848484612459565b50505050565b6060610f03826124b5565b610f42576040517f08c379a0000000000000000000000000000000000000000000000000000000008152600401610f3990613eaa565b60405180910390fd5b6000600b8381548110610f5857610f57613cec565b5b906000526020600020016040518060e00160405290816000820160009054906101000a900473ffffffffffffffffffffffffffffffffffffffff1673ffffffffffffffffffffffffffffffffffffffff1673ffffffffffffffffffffffffffffffffffffffff1681526020016000820160149054906101000a900460ff1660ff1660ff1681526020016000820160159054906101000a900460ff1660ff1660ff1681526020016000820160169054906101000a900461ffff1661ffff1661ffff1681526020016000820160189054906101000a900460ff1660ff1660ff1681526020016000820160199054906101000a900460ff1660ff1660ff16815260200160008201601a9054906101000a900463ffffffff1663ffffffff1663ffffffff16815250509050611087610781565b816060015161ffff16106110ae576110a6816060015161ffff166124f6565b915050611647565b600080826020015160ff16116110c55760046110c8565b60065b60ff1682606001516110da9190613ef9565b61ffff1667ffffffffffffffff8111156110f7576110f66137c4565b5b60405190808252806020026020018201604052801561112a57816020015b60608152602001906001900390816111155790505b5090506040518061030001604052806102c18152602001614f286102c191398160008151811061115d5761115c613cec565b5b60200260200101819052506040518060a00160405280607f81526020016151e9607f91398160028151811061119557611194613cec565b5b602002602001018190525060006040518060a00160405280607f81526020016151e9607f9139516040518061030001604052806102c18152602001614f286102c19139516111e39190613f2f565b905060006001600b6000815481106111fe576111fd613cec565b5b9060005260206000200160000160169054906101000a900461ffff166112249190613ef9565b61ffff169050600080856020015160ff16111561148a576112647f0000000000000000000000000000000000000000000000000000000000000000612527565b8460038151811061127857611277613cec565b5b602002602001018190525081600186606001516112959190613ef9565b61ffff166112a39190613f63565b905060005b8181101561137757611305600b84836112c19190613f2f565b815481106112d2576112d1613cec565b5b9060005260206000200160000160009054906101000a900473ffffffffffffffffffffffffffffffffffffffff16612527565b856004836113139190613f2f565b8151811061132457611323613cec565b5b60200260200101819052508460048261133d9190613f2f565b8151811061134e5761134d613cec565b5b602002602001015151846113629190613f2f565b9350808061136f90613f97565b9150506112a8565b50600c8054611385906139e1565b80601f01602080910402602001604051908101604052809291908181526020018280546113b1906139e1565b80156113fe5780601f106113d3576101008083540402835291602001916113fe565b820191906000526020600020905b8154815290600101906020018083116113e157829003601f168201915b5050505050848260046114119190613f2f565b8151811061142257611421613cec565b5b60200260200101819052508381600461143b9190613f2f565b8151811061144c5761144b613cec565b5b6020026020010151518460038151811061146957611468613cec565b5b60200260200101515161147c9190613f2f565b836114879190613f2f565b92505b600080600090505b83811015611572576000876020015160ff16116114b05760036114b3565b60055b60ff1683826114c29190613f2f565b6114cc9190613f2f565b9150611518600b82815481106114e5576114e4613cec565b5b9060005260206000200160000160009054906101000a900473ffffffffffffffffffffffffffffffffffffffff16612527565b86838151811061152b5761152a613cec565b5b602002602001018190525085828151811061154957611548613cec565b5b6020026020010151518561155d9190613f2f565b9450808061156a90613f97565b915050611492565b5061157c8861255e565b61158c876020015160ff1661255e565b61159c886040015160ff1661255e565b6115be610400600d896115af9190613f2f565b6115b9919061400e565b61255e565b6115ce8a6080015160ff1661255e565b6115de8b60a0015160ff1661255e565b6115f18c60c0015163ffffffff1661255e565b60405160200161160797969594939291906140a1565b6040516020818303038152906040528560018151811061162a57611629613cec565b5b602002602001018190525061163e856125ae565b96505050505050505b919050565b6000600560008473ffffffffffffffffffffffffffffffffffffffff1673ffffffffffffffffffffffffffffffffffffffff16815260200190815260200160002060008373ffffffffffffffffffffffffffffffffffffffff1673ffffffffffffffffffffffffffffffffffffffff16815260200190815260200160002060009054906101000a900460ff16905092915050565b6116e86121a9565b600073ffffffffffffffffffffffffffffffffffffffff168173ffffffffffffffffffffffffffffffffffffffff1603611757576040517f08c379a000000000000000000000000000000000000000000000000000000000815260040161174e906141d2565b60405180910390fd5b61176081612227565b50565b7f000000000000000000000000000000000000000000000000000000000000000081565b6000808260405160200161179b919061425a565b60405160208183030381529060405290506000816040516020016117bf91906142c8565b60405160208183030381529060405290508051602082016000f09250600073ffffffffffffffffffffffffffffffffffffffff168373ffffffffffffffffffffffffffffffffffffffff160361184a576040517f08c379a000000000000000000000000000000000000000000000000000000000815260040161184190614336565b60405180910390fd5b5050919050565b60007f80ac58cd000000000000000000000000000000000000000000000000000000007bffffffffffffffffffffffffffffffffffffffffffffffffffffffff1916827bffffffffffffffffffffffffffffffffffffffffffffffffffffffff1916148061191c57507f5b5e139f000000000000000000000000000000000000000000000000000000007bffffffffffffffffffffffffffffffffffffffffffffffffffffffff1916827bffffffffffffffffffffffffffffffffffffffffffffffffffffffff1916145b8061192c575061192b826125d0565b5b9050919050565b61193c816124b5565b61197b576040517f08c379a000000000000000000000000000000000000000000000000000000000815260040161197290613d67565b60405180910390fd5b50565b600033905090565b816004600083815260200190815260200160002060006101000a81548173ffffffffffffffffffffffffffffffffffffffff021916908373ffffffffffffffffffffffffffffffffffffffff160217905550808273ffffffffffffffffffffffffffffffffffffffff166119f983610924565b73ffffffffffffffffffffffffffffffffffffffff167f8c5be1e5ebec7d5bd14f71427d1e84f3dd0314c0f7b2291e5b200ac8c7c3b92560405160405180910390a45050565b600080611a4b83610924565b90508073ffffffffffffffffffffffffffffffffffffffff168473ffffffffffffffffffffffffffffffffffffffff161480611a8d5750611a8c818561164c565b5b80611acb57508373ffffffffffffffffffffffffffffffffffffffff16611ab384610624565b73ffffffffffffffffffffffffffffffffffffffff16145b91505092915050565b8273ffffffffffffffffffffffffffffffffffffffff16611af482610924565b73ffffffffffffffffffffffffffffffffffffffff1614611b4a576040517f08c379a0000000000000000000000000000000000000000000000000000000008152600401611b41906143c8565b60405180910390fd5b600073ffffffffffffffffffffffffffffffffffffffff168273ffffffffffffffffffffffffffffffffffffffff1603611bb9576040517f08c379a0000000000000000000000000000000000000000000000000000000008152600401611bb09061445a565b60405180910390fd5b611bc6838383600161263a565b8273ffffffffffffffffffffffffffffffffffffffff16611be682610924565b73ffffffffffffffffffffffffffffffffffffffff1614611c3c576040517f08c379a0000000000000000000000000000000000000000000000000000000008152600401611c33906143c8565b60405180910390fd5b6004600082815260200190815260200160002060006101000a81549073ffffffffffffffffffffffffffffffffffffffff02191690556001600360008573ffffffffffffffffffffffffffffffffffffffff1673ffffffffffffffffffffffffffffffffffffffff168152602001908152602001600020600082825403925050819055506001600360008473ffffffffffffffffffffffffffffffffffffffff1673ffffffffffffffffffffffffffffffffffffffff16815260200190815260200160002060008282540192505081905550816002600083815260200190815260200160002060006101000a81548173ffffffffffffffffffffffffffffffffffffffff021916908373ffffffffffffffffffffffffffffffffffffffff160217905550808273ffffffffffffffffffffffffffffffffffffffff168473ffffffffffffffffffffffffffffffffffffffff167fddf252ad1be2c89b69c2b068fc378daa952ba7f163c4a11628f55a4df523b3ef60405160405180910390a4611dc88383836001612798565b505050565b60006002600083815260200190815260200160002060009054906101000a900473ffffffffffffffffffffffffffffffffffffffff169050919050565b6000888888888888604051602001611e27969594939291906144a7565b60405160208183030381529060405280519060200120604051602001611e4d919061452e565b604051602081830303815290604052805190602001209050611e9183837f00000000000000000000000000000000000000000000000000000000000000008461279e565b611ed0576040517f08c379a0000000000000000000000000000000000000000000000000000000008152600401611ec790614595565b60405180910390fd5b505050505050505050565b600080600080434248413389604051602001611efc96959493929190614659565b6040516020818303038152906040528051906020012060001c90506401000000006010611f3267ffffffffffffffff84166127b7565b611f3c91906146c9565b611f46919061400e565b9350640100000000602d611f6767ffffffffffffffff604085901c166127b7565b611f7191906146c9565b611f7b919061400e565b9250608081901c9150509193909250565b600073ffffffffffffffffffffffffffffffffffffffff168273ffffffffffffffffffffffffffffffffffffffff1603611ffb576040517f08c379a0000000000000000000000000000000000000000000000000000000008152600401611ff290614757565b60405180910390fd5b612004816124b5565b15612044576040517f08c379a000000000000000000000000000000000000000000000000000000000815260040161203b906147c3565b60405180910390fd5b61205260008383600161263a565b61205b816124b5565b1561209b576040517f08c379a0000000000000000000000000000000000000000000000000000000008152600401612092906147c3565b60405180910390fd5b6001600360008473ffffffffffffffffffffffffffffffffffffffff1673ffffffffffffffffffffffffffffffffffffffff16815260200190815260200160002060008282540192505081905550816002600083815260200190815260200160002060006101000a81548173ffffffffffffffffffffffffffffffffffffffff021916908373ffffffffffffffffffffffffffffffffffffffff160217905550808273ffffffffffffffffffffffffffffffffffffffff16600073ffffffffffffffffffffffffffffffffffffffff167fddf252ad1be2c89b69c2b068fc378daa952ba7f163c4a11628f55a4df523b3ef60405160405180910390a46121a5600083836001612798565b5050565b6121b161197e565b73ffffffffffffffffffffffffffffffffffffffff166121cf610dc4565b73ffffffffffffffffffffffffffffffffffffffff1614612225576040517f08c379a000000000000000000000000000000000000000000000000000000000815260040161221c9061482f565b60405180910390fd5b565b6000600a60009054906101000a900473ffffffffffffffffffffffffffffffffffffffff16905081600a60006101000a81548173ffffffffffffffffffffffffffffffffffffffff021916908373ffffffffffffffffffffffffffffffffffffffff1602179055508173ffffffffffffffffffffffffffffffffffffffff168173ffffffffffffffffffffffffffffffffffffffff167f8be0079c531659141344cd1fd0a4f28419497f9722a3daafe3b4186f6b6457e060405160405180910390a35050565b8173ffffffffffffffffffffffffffffffffffffffff168373ffffffffffffffffffffffffffffffffffffffff160361235b576040517f08c379a00000000000000000000000000000000000000000000000000000000081526004016123529061489b565b60405180910390fd5b80600560008573ffffffffffffffffffffffffffffffffffffffff1673ffffffffffffffffffffffffffffffffffffffff16815260200190815260200160002060008473ffffffffffffffffffffffffffffffffffffffff1673ffffffffffffffffffffffffffffffffffffffff16815260200190815260200160002060006101000a81548160ff0219169083151502179055508173ffffffffffffffffffffffffffffffffffffffff168373ffffffffffffffffffffffffffffffffffffffff167f17307eab39ab6107e8899845ad3d59bd9653f200f220920489ca2b5937696c318360405161244c91906131a4565b60405180910390a3505050565b612464848484611ad4565b61247084848484612982565b6124af576040517f08c379a00000000000000000000000000000000000000000000000000000000081526004016124a69061492d565b60405180910390fd5b50505050565b60008073ffffffffffffffffffffffffffffffffffffffff166124d783611dcd565b73ffffffffffffffffffffffffffffffffffffffff1614159050919050565b60606125018261255e565b6040516020016125119190614dab565b6040516020818303038152906040529050919050565b6060612557826001808573ffffffffffffffffffffffffffffffffffffffff163b6125529190613f63565b612b09565b9050919050565b606060a060405101806040526020810391506000825281835b60011561259957600184039350600a81066030018453600a8104905080612577575b50828103602084039350808452505050919050565b60606125c98260405180602001604052806000815250612b32565b9050919050565b60007f01ffc9a7000000000000000000000000000000000000000000000000000000007bffffffffffffffffffffffffffffffffffffffffffffffffffffffff1916827bffffffffffffffffffffffffffffffffffffffffffffffffffffffff1916149050919050565b61264684848484612b51565b600181111561268a576040517f08c379a000000000000000000000000000000000000000000000000000000000815260040161268190614e4a565b60405180910390fd5b6000829050600073ffffffffffffffffffffffffffffffffffffffff168573ffffffffffffffffffffffffffffffffffffffff16036126d1576126cc81612c77565b612710565b8373ffffffffffffffffffffffffffffffffffffffff168573ffffffffffffffffffffffffffffffffffffffff161461270f5761270e8582612cc0565b5b5b600073ffffffffffffffffffffffffffffffffffffffff168473ffffffffffffffffffffffffffffffffffffffff16036127525761274d81612e2d565b612791565b8473ffffffffffffffffffffffffffffffffffffffff168473ffffffffffffffffffffffffffffffffffffffff16146127905761278f8482612efe565b5b5b5050505050565b50505050565b6000826127ac868685612f7d565b149050949350505050565b60008082036127c9576000905061297d565b600082905060006001905070010000000000000000000000000000000082106127fb57608082901c9150604081901b90505b68010000000000000000821061281a57604082901c9150602081901b90505b640100000000821061283557602082901c9150601081901b90505b62010000821061284e57601082901c9150600881901b90505b610100821061286657600882901c9150600481901b90505b6010821061287d57600482901c9150600281901b90505b6008821061288d57600181901b90505b6001818561289b919061400e565b826128a69190613f2f565b901c9050600181856128b8919061400e565b826128c39190613f2f565b901c9050600181856128d5919061400e565b826128e09190613f2f565b901c9050600181856128f2919061400e565b826128fd9190613f2f565b901c90506001818561290f919061400e565b8261291a9190613f2f565b901c90506001818561292c919061400e565b826129379190613f2f565b901c905060018185612949919061400e565b826129549190613f2f565b901c905060008185612966919061400e565b90508082106129755780612977565b815b93505050505b919050565b60006129a38473ffffffffffffffffffffffffffffffffffffffff16612fd5565b15612afc578373ffffffffffffffffffffffffffffffffffffffff1663150b7a026129cc61197e565b8786866040518563ffffffff1660e01b81526004016129ee9493929190614e6a565b6020604051808303816000875af1925050508015612a2a57506040513d601f19601f82011682018060405250810190612a279190614ecb565b60015b612aac573d8060008114612a5a576040519150601f19603f3d011682016040523d82523d6000602084013e612a5f565b606091505b506000815103612aa4576040517f08c379a0000000000000000000000000000000000000000000000000000000008152600401612a9b9061492d565b60405180910390fd5b805181602001fd5b63150b7a0260e01b7bffffffffffffffffffffffffffffffffffffffffffffffffffffffff1916817bffffffffffffffffffffffffffffffffffffffffffffffffffffffff191614915050612b01565b600190505b949350505050565b60606040519050601f19601f6020840101168101604052818152818360208301863c9392505050565b6060600080849150839050612b478282612ff8565b9250505092915050565b6001811115612c7157600073ffffffffffffffffffffffffffffffffffffffff168473ffffffffffffffffffffffffffffffffffffffff1614612be55780600360008673ffffffffffffffffffffffffffffffffffffffff1673ffffffffffffffffffffffffffffffffffffffff1681526020019081526020016000206000828254612bdd9190613f63565b925050819055505b600073ffffffffffffffffffffffffffffffffffffffff168373ffffffffffffffffffffffffffffffffffffffff1614612c705780600360008573ffffffffffffffffffffffffffffffffffffffff1673ffffffffffffffffffffffffffffffffffffffff1681526020019081526020016000206000828254612c689190613f2f565b925050819055505b5b50505050565b6008805490506009600083815260200190815260200160002081905550600881908060018154018082558091505060019003906000526020600020016000909190919091505550565b60006001612ccd84610c39565b612cd79190613f63565b9050600060076000848152602001908152602001600020549050818114612dbc576000600660008673ffffffffffffffffffffffffffffffffffffffff1673ffffffffffffffffffffffffffffffffffffffff168152602001908152602001600020600084815260200190815260200160002054905080600660008773ffffffffffffffffffffffffffffffffffffffff1673ffffffffffffffffffffffffffffffffffffffff168152602001908152602001600020600084815260200190815260200160002081905550816007600083815260200190815260200160002081905550505b6007600084815260200190815260200160002060009055600660008573ffffffffffffffffffffffffffffffffffffffff1673ffffffffffffffffffffffffffffffffffffffff16815260200190815260200160002060008381526020019081526020016000206000905550505050565b60006001600880549050612e419190613f63565b9050600060096000848152602001908152602001600020549050600060088381548110612e7157612e70613cec565b5b906000526020600020015490508060088381548110612e9357612e92613cec565b5b906000526020600020018190555081600960008381526020019081526020016000208190555060096000858152602001908152602001600020600090556008805480612ee257612ee1614ef8565b5b6001900381819060005260206000200160009055905550505050565b6000612f0983610c39565b905081600660008573ffffffffffffffffffffffffffffffffffffffff1673ffffffffffffffffffffffffffffffffffffffff168152602001908152602001600020600083815260200190815260200160002081905550806007600084815260200190815260200160002081905550505050565b60008082905060005b85859050811015612fc957612fb482878784818110612fa857612fa7613cec565b5b905060200201356130ae565b91508080612fc190613f97565b915050612f86565b50809150509392505050565b6000808273ffffffffffffffffffffffffffffffffffffffff163b119050919050565b60606040519050602081018251602081111561301357602084fd5b60208401518551602087016020820281016000825b8281101561308b578051805180840193506000602082061160208204016020830160005b8281101561306e578151602082028e015260208201915060018101905061304c565b50828c019b50898c528a8c019b5050505050602081019050613028565b5085600185030281018852601f19601f8801166040525050505050505092915050565b60008183106130c6576130c182846130d9565b6130d1565b6130d083836130d9565b5b905092915050565b600082600052816020526040600020905092915050565b6000604051905090565b600080fd5b600080fd5b60007fffffffff0000000000000000000000000000000000000000000000000000000082169050919050565b61313981613104565b811461314457600080fd5b50565b60008135905061315681613130565b92915050565b600060208284031215613172576131716130fa565b5b600061318084828501613147565b91505092915050565b60008115159050919050565b61319e81613189565b82525050565b60006020820190506131b96000830184613195565b92915050565b600081519050919050565b600082825260208201905092915050565b60005b838110156131f95780820151818401526020810190506131de565b60008484015250505050565b6000601f19601f8301169050919050565b6000613221826131bf565b61322b81856131ca565b935061323b8185602086016131db565b61324481613205565b840191505092915050565b600060208201905081810360008301526132698184613216565b905092915050565b600081519050919050565b600082825260208201905092915050565b600061329882613271565b6132a2818561327c565b93506132b28185602086016131db565b6132bb81613205565b840191505092915050565b600060208201905081810360008301526132e0818461328d565b905092915050565b6000819050919050565b6132fb816132e8565b811461330657600080fd5b50565b600081359050613318816132f2565b92915050565b600060208284031215613334576133336130fa565b5b600061334284828501613309565b91505092915050565b600073ffffffffffffffffffffffffffffffffffffffff82169050919050565b60006133768261334b565b9050919050565b6133868161336b565b82525050565b60006020820190506133a1600083018461337d565b92915050565b6133b08161336b565b81146133bb57600080fd5b50565b6000813590506133cd816133a7565b92915050565b600080604083850312156133ea576133e96130fa565b5b60006133f8858286016133be565b925050602061340985828601613309565b9150509250929050565b61341c816132e8565b82525050565b60006020820190506134376000830184613413565b92915050565b600080600060608486031215613456576134556130fa565b5b6000613464868287016133be565b9350506020613475868287016133be565b925050604061348686828701613309565b9150509250925092565b600080fd5b600080fd5b600080fd5b60008083601f8401126134b5576134b4613490565b5b8235905067ffffffffffffffff8111156134d2576134d1613495565b5b6020830191508360018202830111156134ee576134ed61349a565b5b9250929050565b600060ff82169050919050565b61350b816134f5565b811461351657600080fd5b50565b60008135905061352881613502565b92915050565b600061ffff82169050919050565b6135458161352e565b811461355057600080fd5b50565b6000813590506135628161353c565b92915050565b60008083601f84011261357e5761357d613490565b5b8235905067ffffffffffffffff81111561359b5761359a613495565b5b6020830191508360208202830111156135b7576135b661349a565b5b9250929050565b600080600080600080600060a0888a0312156135dd576135dc6130fa565b5b600088013567ffffffffffffffff8111156135fb576135fa6130ff565b5b6136078a828b0161349f565b9750975050602061361a8a828b01613519565b955050604061362b8a828b01613519565b945050606061363c8a828b01613553565b935050608088013567ffffffffffffffff81111561365d5761365c6130ff565b5b6136698a828b01613568565b925092505092959891949750929550565b6000602082840312156136905761368f6130fa565b5b600061369e848285016133be565b91505092915050565b6136b0816134f5565b82525050565b6136bf8161352e565b82525050565b600063ffffffff82169050919050565b6136de816136c5565b82525050565b600060e0820190506136f9600083018a61337d565b61370660208301896136a7565b61371360408301886136a7565b61372060608301876136b6565b61372d60808301866136a7565b61373a60a08301856136a7565b61374760c08301846136d5565b98975050505050505050565b61375c81613189565b811461376757600080fd5b50565b60008135905061377981613753565b92915050565b60008060408385031215613796576137956130fa565b5b60006137a4858286016133be565b92505060206137b58582860161376a565b9150509250929050565b600080fd5b7f4e487b7100000000000000000000000000000000000000000000000000000000600052604160045260246000fd5b6137fc82613205565b810181811067ffffffffffffffff8211171561381b5761381a6137c4565b5b80604052505050565b600061382e6130f0565b905061383a82826137f3565b919050565b600067ffffffffffffffff82111561385a576138596137c4565b5b61386382613205565b9050602081019050919050565b82818337600083830152505050565b600061389261388d8461383f565b613824565b9050828152602081018484840111156138ae576138ad6137bf565b5b6138b9848285613870565b509392505050565b600082601f8301126138d6576138d5613490565b5b81356138e684826020860161387f565b91505092915050565b60008060008060808587031215613909576139086130fa565b5b6000613917878288016133be565b9450506020613928878288016133be565b935050604061393987828801613309565b925050606085013567ffffffffffffffff81111561395a576139596130ff565b5b613966878288016138c1565b91505092959194509250565b60008060408385031215613989576139886130fa565b5b6000613997858286016133be565b92505060206139a8858286016133be565b9150509250929050565b7f4e487b7100000000000000000000000000000000000000000000000000000000600052602260045260246000fd5b600060028204905060018216806139f957607f821691505b602082108103613a0c57613a0b6139b2565b5b50919050565b7f4552433732313a20617070726f76616c20746f2063757272656e74206f776e6560008201527f7200000000000000000000000000000000000000000000000000000000000000602082015250565b6000613a6e6021836131ca565b9150613a7982613a12565b604082019050919050565b60006020820190508181036000830152613a9d81613a61565b9050919050565b7f4552433732313a20617070726f76652063616c6c6572206973206e6f7420746f60008201527f6b656e206f776e6572206f7220617070726f76656420666f7220616c6c000000602082015250565b6000613b00603d836131ca565b9150613b0b82613aa4565b604082019050919050565b60006020820190508181036000830152613b2f81613af3565b9050919050565b7f4552433732313a2063616c6c6572206973206e6f7420746f6b656e206f776e6560008201527f72206f7220617070726f76656400000000000000000000000000000000000000602082015250565b6000613b92602d836131ca565b9150613b9d82613b36565b604082019050919050565b60006020820190508181036000830152613bc181613b85565b9050919050565b7f455243373231456e756d657261626c653a206f776e657220696e646578206f7560008201527f74206f6620626f756e6473000000000000000000000000000000000000000000602082015250565b6000613c24602b836131ca565b9150613c2f82613bc8565b604082019050919050565b60006020820190508181036000830152613c5381613c17565b9050919050565b7f455243373231456e756d657261626c653a20676c6f62616c20696e646578206f60008201527f7574206f6620626f756e64730000000000000000000000000000000000000000602082015250565b6000613cb6602c836131ca565b9150613cc182613c5a565b604082019050919050565b60006020820190508181036000830152613ce581613ca9565b9050919050565b7f4e487b7100000000000000000000000000000000000000000000000000000000600052603260045260246000fd5b7f4552433732313a20696e76616c696420746f6b656e2049440000000000000000600082015250565b6000613d516018836131ca565b9150613d5c82613d1b565b602082019050919050565b60006020820190508181036000830152613d8081613d44565b9050919050565b6000608082019050613d9c6000830187613413565b613da96020830186613413565b613db660408301856136a7565b613dc360608301846136a7565b95945050505050565b7f4552433732313a2061646472657373207a65726f206973206e6f74206120766160008201527f6c6964206f776e65720000000000000000000000000000000000000000000000602082015250565b6000613e286029836131ca565b9150613e3382613dcc565b604082019050919050565b60006020820190508181036000830152613e5781613e1b565b9050919050565b7f546f6b656e20646f6573206e6f74206578697374000000000000000000000000600082015250565b6000613e946014836131ca565b9150613e9f82613e5e565b602082019050919050565b60006020820190508181036000830152613ec381613e87565b9050919050565b7f4e487b7100000000000000000000000000000000000000000000000000000000600052601160045260246000fd5b6000613f048261352e565b9150613f0f8361352e565b9250828201905061ffff811115613f2957613f28613eca565b5b92915050565b6000613f3a826132e8565b9150613f45836132e8565b9250828201905080821115613f5d57613f5c613eca565b5b92915050565b6000613f6e826132e8565b9150613f79836132e8565b9250828203905081811115613f9157613f90613eca565b5b92915050565b6000613fa2826132e8565b91507fffffffffffffffffffffffffffffffffffffffffffffffffffffffffffffffff8203613fd457613fd3613eca565b5b600182019050919050565b7f4e487b7100000000000000000000000000000000000000000000000000000000600052601260045260246000fd5b6000614019826132e8565b9150614024836132e8565b92508261403457614033613fdf565b5b828204905092915050565b600081905092915050565b6000614055826131bf565b61405f818561403f565b935061406f8185602086016131db565b80840191505092915050565b7f2c00000000000000000000000000000000000000000000000000000000000000815250565b60006140ad828a61404a565b91506140b88261407b565b6001820191506140c8828961404a565b91506140d38261407b565b6001820191506140e3828861404a565b91506140ee8261407b565b6001820191506140fe828761404a565b91506141098261407b565b600182019150614119828661404a565b91506141248261407b565b600182019150614134828561404a565b915061413f8261407b565b60018201915061414f828461404a565b915081905098975050505050505050565b7f4f776e61626c653a206e6577206f776e657220697320746865207a65726f206160008201527f6464726573730000000000000000000000000000000000000000000000000000602082015250565b60006141bc6026836131ca565b91506141c782614160565b604082019050919050565b600060208201905081810360008301526141eb816141af565b9050919050565b60008082015250565b600061420860018361403f565b9150614213826141f2565b600182019050919050565b600081905092915050565b600061423482613271565b61423e818561421e565b935061424e8185602086016131db565b80840191505092915050565b6000614265826141fb565b91506142718284614229565b915081905092915050565b7f600b5981380380925939f3000000000000000000000000000000000000000000600082015250565b60006142b2600b8361403f565b91506142bd8261427c565b600b82019050919050565b60006142d3826142a5565b91506142df8284614229565b915081905092915050565b7f4445504c4f594d454e545f4641494c4544000000000000000000000000000000600082015250565b60006143206011836131ca565b915061432b826142ea565b602082019050919050565b6000602082019050818103600083015261434f81614313565b9050919050565b7f4552433732313a207472616e736665722066726f6d20696e636f72726563742060008201527f6f776e6572000000000000000000000000000000000000000000000000000000602082015250565b60006143b26025836131ca565b91506143bd82614356565b604082019050919050565b600060208201905081810360008301526143e1816143a5565b9050919050565b7f4552433732313a207472616e7366657220746f20746865207a65726f2061646460008201527f7265737300000000000000000000000000000000000000000000000000000000602082015250565b60006144446024836131ca565b915061444f826143e8565b604082019050919050565b6000602082019050818103600083015261447381614437565b9050919050565b600061448683856131ca565b9350614493838584613870565b61449c83613205565b840190509392505050565b600060a08201905081810360008301526144c281888a61447a565b90506144d16020830187613413565b6144de60408301866136a7565b6144eb60608301856136a7565b6144f860808301846136b6565b979650505050505050565b6000819050919050565b6000819050919050565b61452861452382614503565b61450d565b82525050565b600061453a8284614517565b60208201915081905092915050565b7f496e76616c696420646174610000000000000000000000000000000000000000600082015250565b600061457f600c836131ca565b915061458a82614549565b602082019050919050565b600060208201905081810360008301526145ae81614572565b9050919050565b6000819050919050565b6145d06145cb826132e8565b6145b5565b82525050565b60006145e18261334b565b9050919050565b60008160601b9050919050565b6000614600826145e8565b9050919050565b6000614612826145f5565b9050919050565b61462a614625826145d6565b614607565b82525050565b600061463b826145f5565b9050919050565b61465361464e8261336b565b614630565b82525050565b600061466582896145bf565b60208201915061467582886145bf565b60208201915061468582876145bf565b6020820191506146958286614619565b6014820191506146a58285614642565b6014820191506146b582846145bf565b602082019150819050979650505050505050565b60006146d4826132e8565b91506146df836132e8565b92508282026146ed816132e8565b9150828204841483151761470457614703613eca565b5b5092915050565b7f4552433732313a206d696e7420746f20746865207a65726f2061646472657373600082015250565b60006147416020836131ca565b915061474c8261470b565b602082019050919050565b6000602082019050818103600083015261477081614734565b9050919050565b7f4552433732313a20746f6b656e20616c7265616479206d696e74656400000000600082015250565b60006147ad601c836131ca565b91506147b882614777565b602082019050919050565b600060208201905081810360008301526147dc816147a0565b9050919050565b7f4f776e61626c653a2063616c6c6572206973206e6f7420746865206f776e6572600082015250565b60006148196020836131ca565b9150614824826147e3565b602082019050919050565b600060208201905081810360008301526148488161480c565b9050919050565b7f4552433732313a20617070726f766520746f2063616c6c657200000000000000600082015250565b60006148856019836131ca565b91506148908261484f565b602082019050919050565b600060208201905081810360008301526148b481614878565b9050919050565b7f4552433732313a207472616e7366657220746f206e6f6e20455243373231526560008201527f63656976657220696d706c656d656e7465720000000000000000000000000000602082015250565b60006149176032836131ca565b9150614922826148bb565b604082019050919050565b600060208201905081810360008301526149468161490a565b9050919050565b7f646174613a696d6167652f7376672b786d6c3b636861727365743d5554462d3860008201527f2c2533437376672530442530412532302532302532302532307769647468253360208201527f4425323235696e2532322530442530412532302532302532302532306865696760408201527f687425334425323237696e25323225304425304125323025323025323025323060608201527f76696577426f782533442532323025323030253230313030253230313430253260808201527f32253044253041253230253230253230253230786d6c6e73253344253232687460a08201527f74702533412532462532467777772e77332e6f7267253246323030302532467360c08201527f7667253232253044253041253230253230253230253230786d6c6e732533417860e08201527f6c696e6b253344253232687474702533412532462532467777772e77332e6f726101008201527f6725324631393939253246786c696e6b253232253044253041253230253230256101208201527f32302532307374796c65253344253232666f6e742d73697a65253341253230326101408201527f33253235253232253044253041253345253044253041253230253230253230256101608201527f32302533437465787425323078253344253232353025323225323079253344256101808201527f32323330253232253230746578742d616e63686f722533442532326d6964646c6101a08201527f65253232253345546869732532306361726425334325324674657874253345256101c08201527f30442530412532302532302532302532302533437465787425323078253344256101e08201527f32323530253232253230792533442532323335253232253230746578742d616e6102008201527f63686f722533442532326d6964646c6525323225334577696c6c2532306265256102208201527f323076697369626c6525334325324674657874253345253044253041253230256102408201527f32302532302532302533437465787425323078253344253232353025323225326102608201527f30792533442532323430253232253230746578742d616e63686f7225334425326102808201527f326d6964646c652532322533457768656e2532306361726425323025323300006102a082015250565b6000614cb06102be8361403f565b9150614cbb8261494d565b6102be82019050919050565b7f253343253246746578742533452530442530412532302532302532302532302560008201527f334374657874253230782533442532323530253232253230792533442532323460208201527f35253232253230746578742d616e63686f722533442532326d6964646c65253260408201527f3225334569732532306d696e65642e253343253246746578742533452530442560608201527f3041253343253246737667253345253044253041000000000000000000000000608082015250565b6000614d9560948361403f565b9150614da082614cc7565b609482019050919050565b6000614db682614ca2565b9150614dc2828461404a565b9150614dcd82614d88565b915081905092915050565b7f455243373231456e756d657261626c653a20636f6e736563757469766520747260008201527f616e7366657273206e6f7420737570706f727465640000000000000000000000602082015250565b6000614e346035836131ca565b9150614e3f82614dd8565b604082019050919050565b60006020820190508181036000830152614e6381614e27565b9050919050565b6000608082019050614e7f600083018761337d565b614e8c602083018661337d565b614e996040830185613413565b8181036060830152614eab818461328d565b905095945050505050565b600081519050614ec581613130565b92915050565b600060208284031215614ee157614ee06130fa565b5b6000614eef84828501614eb6565b91505092915050565b7f4e487b7100000000000000000000000000000000000000000000000000000000600052603160045260246000fdfe646174613a696d6167652f7376672b786d6c3b636861727365743d5554462d382c25334373766725304425304125323025323025323025323077696474683d25323235696e2532322530442530412532302532302532302532306865696768743d25323237696e25323225304425304125323025323025323025323076696577426f783d253232302532303025323031303025323031343025323225304425304125323025323025323025323073686170652d72656e646572696e673d25323267656f6d6574726963507265636973696f6e253232253044253041253230253230253230253230746578742d72656e646572696e673d25323267656f6d6574726963507265636973696f6e253232253044253041253230253230253230253230696d6167652d72656e646572696e673d2532326f7074696d697a655175616c697479253232253044253041253230253230253230253230786d6c6e733d253232687474703a2f2f7777772e77332e6f72672f323030302f737667253232253044253041253230253230253230253230786d6c6e733a786c696e6b3d253232687474703a2f2f7777772e77332e6f72672f313939392f786c696e6b2532322530442530412532302532302532302532307374796c653d253232666f6e742d73697a653a2532303233253235253232253044253041253345253044253041253230253230253230253230253343736372697074253345253044253041253039253039253343212535424344415441253542253044253041253230253230253230253230253230253230253230253230253230253230253230253230766172253230253542746f6b656e49642c253230706861736549642c253230746f6b656e4964496e50686173652c2532306b696c6f42797465732c253230636f6c6f7249642c25323071756f746549642c253230736565642535442532303d2532302535422532302532302535443b2530442530412530392530392535442535442533452530442530412530392533432f73637269707425334525304425304125323025323025323025323025334364656673253345253044253041253230253230253230253230253230253230253230253230253343696d616765253230687265663d253232a264697066735822122010a83c9a453ad9233efdd19db95077e8262c5be0eef698b8d35ca9e182e8e65e64736f6c63430008110033",
  "linkReferences": {},
  "deployedLinkReferences": {}
}